:100000000C9472000C9493000C9493000C94930045
:100010000C9493000C9493000C9493000C94930014
:100020000C9493000C9493000C9493000C94930004
:100030000C9493000C9493000C9493000C949300F4
:100040000C9493000C9493000C9493000C949300E4
:100050000C9493000C9493000C9493000C949300D4
:100060000C9493000C9456010C9493000C94930000
:100070000C9493000C9493000C9493000C949300B4
:100080000C9493000C9493000C9493000C949300A4
:100090000C9493000C9493000C9493000C94930094
:1000A0000C9493000C9493000C9493000C94930084
:1000B0000C9493000C9493000C9493000C94930074
:1000C0000C9493000C9493000C9493000C94930064
:1000D0000C9493000C9493000C9493000C94930054
:1000E0000C94930011241FBECFEFD1E2DEBFCDBF31
:1000F00000E00CBF12E0A0E0B2E0E6EAF5E000E0CC
:100100000BBF02C007900D92A030B107D9F712E0E3
:10011000A0E0B2E001C01D92A830B107E1F70E9453
:1001200049020C94D1020C94000081E080930101FB
:100130001092020108958FE081B912B8EAE0F1E06F
:10014000808188618083EBE0F1E080818861808339
:10015000089510BA11BA0895E1ECF0E010821092FF
:10016000C00086E08093C2008FE58093C4001092A7
:10017000C50088E980830895E1E2F1E010828FEF05
:100180008093250191E0909324011092290180939E
:10019000280110922B0180932A0110922D01809347
:1001A0002C0189EA809320018BE080830895EAE79F
:1001B000F0E0108210927B0080E280937C0080E867
:1001C00080BF86E880830895883018F098E0909387
:1001D0007B008770806280937C00EAE7F0E080819A
:1001E00080648083808184FFFDCF80917900EAE77D
:1001F000F0E090819061908310927B000895E0EC94
:10020000F0E080818823ECF78091C6000895E0EC4F
:10021000F0E0908195FFFDCF8093C6000895809314
:10022000280160932A01089592B1907F8F70982BD6
:1002300092B9089581E0809302010895109202011D
:10024000089586E00E941401089589E00E94140137
:10025000089585E00E94140108958AE00E94140127
:10026000089584E00E941401089582E00E94140120
:10027000089580E00E941401089514B815B80895F7
:1002800081E085B98FEF9FEFA0EE81509040A040B4
:10029000E1F700C0000015B88FEF9FEFACE281508E
:1002A0009040A040E1F700C0000008951F920F9217
:1002B0000FB60F920BB60F9211242F933F934F93CB
:1002C0005F936F937F938F939F93AF93BF93EF93BE
:1002D000FF93E6ECF0E0808190E09093070280933A
:1002E00006028091060290910702808380910602A7
:1002F000909107028C369105F1F40E94210184E669
:100300006EE60E940F018FEF9FE7ADE081509040B5
:10031000A040E1F700C000000E9429018AE568E7DB
:100320000E940F0182E393E1A6E081509040A0403B
:10033000E1F700C000C08091060290910702823769
:100340009105F1F40E94210184E66EE60E940F01FE
:100350008FEF9FE7ADE081509040A040E1F700C0F3
:1003600000000E942D0188E76AE50E940F0182E3E8
:1003700093E1A6E081509040A040E1F700C000C0AA
:1003800080910602909107028037910509F049C0DB
:100390000E94210184E66EE60E940F018FEF9FE725
:1003A000AAE381509040A040E1F700C000000E9405
:1003B00039018091040280FD08C00E941A018091D9
:1003C00004028F5F809304020CC00E941E01809182
:1003D00004028F5F80930402809100028F5F8093FC
:1003E00000028FEF9FEFACE281509040A040E1F718
:1003F00000C000000E94250184E66EE60E940F0105
:100400008FEF9FE3A8E381509040A040E1F700C048
:10041000000080910002833021F40E9439010E9483
:10042000400180910602909107028537910569F499
:100430000E94290186E966E90E940F0186E696E29C
:10044000A5E181509040A040E1F7FF91EF91BF916D
:10045000AF919F918F917F916F915F914F913F915C
:100460002F910F900BBE0F900FBE0F901F901895FD
:10047000F8940E949B000E94A9000E943D010E94E6
:1004800095000E94BC000E94AC000E94D7007894A6
:1004900008950E94380284E664E60E940F0183E01A
:1004A0000E94E4008093030282E00E94E4008093B3
:1004B000020281E00E94E400809301029091020216
:1004C000993260F090910302973340F4873330F40F
:1004D0000E94210186E965EA0E940F0180910202D3
:1004E0008832B8F480910302883298F48091010236
:1004F000883278F40E94250184E66EE60E940F019E
:100500008FEF9FE7A4E081509040A040E1F700C04A
:10051000000080910302893270F0809101028832DC
:1005200090F490910202983271F00E94210186E9C4
:1005300062E40E940F0180910102883220F49091C0
:100540000202993230F4893270F0809102028832CE
:1005500050F480910302883230F40E94210182E439
:1005600066E90E940F0180910202893208F497CF58
:1005700080910302893208F492CF8091010289327E
:1005800008F48DCF0E9439018EE60E9407018FEF9B
:100590009FEFA9E581509040A040E1F700C0000026
:0605A0007ECFF894FFCFAE
:00000001FF
